:080000000C944F000C94000069
:100008000C9400000C9400000C9400000C94000068
:100018000C9400000C9400000C9400000C94000058
:100028000C9400000C9400000C9400000C94000048
:100038000C9400000C9400000C9400000C94000038
:100048000C9400000C9400000C9400000C94000028
:100058000C9400000C9400000C9400000C94000018
:1000680003030302020C000800010006000A151130
:100078000A041F001F001F001F004D6963726F7381
:100088000052756C657321000600000374000700B8
:1000980008037A000000F894EE27EFBBF1E0F5BF03
:1000A800E5BFF8E1A895A4B7A77FA4BFF0936000C7
:1000B800E09360008DE0A2E0BB27ED938A95E9F715
:1000C80080E098E0A0E0B1E0ED930197E9F7E0E97E
:1000D800F0E085919591009761F0A591B591059013
:1000E8001590BF01F00105900D920197E1F7FB0112
:1000F800F0CFE0E0EEBBEFEFEDBFE8E0EEBFC0E031
:10010800D3E00C9454012C978CE0A0E0B0E0E8E632
:10011800F0E00E94A5011A93219A209A229A239A24
:10012800249A259AA2E3B0E00E949B0110E01C30BB
:1001380058F4E1D0E12FF0E0DE011196AE0FBF1FB9
:10014800AC91DDD01F5FF3CFECE05E2EA52D21D062
:1001580018812D960895299A29980895AA93E881D7
:10016800E87011F02D9A01C02D98E881E47011F023
:100178002C9A01C02C98E881E27011F02B9A01C0EA
:100188002B98E881E17011F02A9A01C02A982196EB
:100198000895AA931A932898AED0B3D0B9D0DBDFCC
:1001A800188154C0AA931A93289AA5D0AAD0B0D07F
:1001B800D2DF18814BC0BA93AA931A9310E0E12FAB
:1001C8001F5FA981BA81AAD0E12FA981BA81F0E085
:1001D800EA0FFB1FE491E03091F718812396089508
:1001E800BA93AA931A9310E0E12F1F5FAB81BC81E9
:1001F80095D0A981BA810E949B01E12FAB81BC8176
:10020800F0E0EA0FFB1FE491E03071F718812596C2
:100218000895AA93E881F0E0309719F4A981A058CD
:1002280014C0E130A0E0FA0719F4A981A0540DC068
:10023800E230A0E0FA0719F4A981AC5606C0E33011
:10024800A0E0FA0719F4A981AC52A3DF2296089519
:10025800E2E05E2A07C0EDEF04C0E1E05E2A02C0DA
:10026800EEEF5E22A52D95DF0895BA93AA931A930F
:10027800EB81EE0FEE0FEE0FE05CAE2F8ADF10E0A1
:10028800183048F4A981BA81EE27A10FBE1FAC919E
:1002980089DF1F5FF5CFA0E87CDF188124960895D9
:1002A8000E948700E0E0EA93A0E0B3E0DEDFE1E04F
:1002B800EA93A8E0B3E0D9DFE5E0EA93A0E0A9DF9C
:1002C800A2E8B0E078DFE5E0EA93A1E0A2DFE9E8A0
:1002D800F0E0FA93EA93A6E9B0E082DFB9DF23D031
:1002E800BADF21D0BADF1FD0BBDFA0E05BDFA1E01F
:1002F80059DFFFCFFFCFA2E0B0E00C949B012EDFC7
:100308002ACFE981E07F1E2F12951F70A12FF7CF0A
:10031800E981EF701E2FA12F21DFEDCFF0E0EA0F6A
:10032800FB1FA4913FCFA8EBBBE00C949B01109658
:1003380039F08AEF90E00197F1F7A8951197C9F77E
:100348000895AC0FBD1F05900D928A95E1F70895A9
:00000001FF
