:020000000C945E
:1000020052000C9400000C9400000C9400000C941C
:1000120000000C9400000C9400000C9400000C945E
:1000220000000C9400000C9400000C9400000C944E
:1000320000000C9400000C9400000C9400000C943E
:1000420000000C9400000C9400000C9400000C942E
:1000520000000C9400000C9400000C9400000C941E
:1000620000000C94000003030302020C00080001CC
:1000720000060E1D1E1C1E1F0E000E1D1F1E1F1F22
:100082000E0048656C6C6F004D722E205061634DFE
:10009200616E0000070000037400070008037C0083
:1000A2000000F894EE27EFBBF1E0F5BFE5BF8DE06D
:1000B200A2E0BB27ED938A95E9F780E098E0A0E003
:1000C200B1E0ED930197E9F7E6E9F0E085919591CA
:1000D200009761F0A591B59105901590BF01F001CF
:1000E20005900D920197E1F7FB01F0CFE0E0EEBB46
:1000F200EFEFEDBFE8E0EEBFC0E0D3E00C945901B2
:100102002C978CE060E070E0E8E6F0E04ED11A93C4
:10011200539A529A549A559A569A579AA2E3B0E031
:1001220055D110E01C3070F4A2E0B0E04FD1E12FC5
:10013200F0E0DE011196AE0FBF1FAC910DD009D0D9
:100142001F5FF0CFECE04E2EA42D1DD018812D960E
:1001520008955B9A5B9808951A931A2F13FF02C0B1
:100162005F9A01C05F9812FF02C05E9A01C05E985A
:1001720011FF02C05D9A01C05D9810FF02C05C9A37
:1001820001C05C988DC01A930A930A2F5A9804C032
:100192001A930A930A2F5A9AA2E0B0E017D1E02FDD
:1001A200E07F1E2F12951F70A12FD6DFD2DFE02F26
:1001B200EF701E2FA12FD0DFA2E0B0E007D1C9DF80
:1001C200099119910895E7D09D0110E0E12F1F5F79
:1001D200F0E0E20FF31FA491DBDFE12FF0E0E20F8A
:1001E200F31FE491E03091F7DBD0249608951A933F
:1001F2000A931A2F0A81E12FF0E0309719F4A02F09
:10020200A05814C0E130A0E0FA0719F4A02FA054BE
:100212000DC0E230A0E0FA0719F4A02FAC5606C0D8
:10022200E330A0E0FA0719F4A02FAC52ACDF198139
:10023200088123960895AFD09D010C81E02FEE0F27
:10024200EE0FEE0FE05CAE2F9EDF10E0183040F4B0
:10025200D901EE27A10FBE1FAC919ADF1F5FF6CF27
:10026200A0E891DF9DD0259608951A931A2FE12FC9
:10027200E064E0937C0085E38A95F1F7E0917A00EF
:10028200E064E0937A00E0917A00E071E1F3E091BA
:100292007A00E061E0937A00E0917800F0917900D1
:1002A20019910895A0E0E1DF8CD0DF018FD008958D
:1002B2003998419A25DFE0E0EA93A0E0B3E0BBDFA2
:1002C200E1E0EA93A8E0B3E0B6DFE1E0E0937E008C
:1002D200E0E4E0937C00E7E8E0937A00E0E0E0937A
:1002E2007B00E5E0EA93A0E082DFA4E8B0E06BDF08
:1002F200E3E0EA93A1E07BDFAAE8B0E064DF319BB0
:1003020017C03324E0E13E163CF4319B05C025D0F2
:10031200A0E23EDF3394F6CF3324E0E13E163CF414
:10032200319B05C029D0A0E233DF3394F6CFE7CF6B
:10033200319911C03324A0E0A3152CF4319B03C0E2
:100342000CD03A94F8CF3324A0E0A3151CF414D0B7
:100352003A94FACFEDCFC5CFFFCF3A92A0E047DF74
:10036200A0E016DF9FDF3A92A0E041DFA1E010DFBC
:1003720099DF3A92A0E03BCF3A92A1E038DFA0E0C9
:1003820007DF90DF3A92A1E032DFA1E001DF8ADFEE
:100392003A92A1E02CCF3A932A931A930A930895A2
:1003A2003B812A81198108810895AF93BF93DB01B4
:1003B200AC0FBD1F05900D928A95E1F7BF91AF91E9
:1003C2000895F695E795F695E7950895109639F014
:1003D200A89580EA9FE00197F1F71197C9F7089570
:00000001FF
