:100000000C9434000C9400000C9400000C9400003C
:100010000C9400000C9400000C9400000C94000060
:100020000C9400000C9400000C9400000C94000050
:100030000C9400000C9400000C9400000C94000040
:100040000C9400000C9400000C9400000C94000030
:100050000C9400000C9400000C9400000C94000020
:100060000C9400000C940000F894EE27EFBBF1E034
:10007000F5BFE5BF8DE0A2E0BB27ED938A95E9F7D8
:1000800080E098E0A0E0B1E0ED930197E9F7E0E0CF
:10009000EEBBEFEFEDBFE8E0EEBFC0E0D3E00C94C5
:1000A0006100E1E0E0938100ECEEE0938500E8E799
:1000B000E0938400B09BFECFB09AE0E0E093810033
:1000C0000895209A2898EDDF289AEBDFFBCFFFCF29
:00000001FF
