:100000000C9470000C9400000C9400000C94000000
:100010000C9400000C9400000C9400000C94000060
:100020000C9400000C9400000C9400000C94000050
:100030000C9400000C9400000C9400000C94000040
:100040000C9400000C9400000C9400000C94000030
:100050000C9400000C9400000C9400000C94000020
:100060000C9400000C9400001027E80364000A00C0
:10007000010000100001100001000000000002005B
:1000800003030302020C0008000100060E0A0E041E
:100090000E15040A0E0E0E040E1504040E0E0E04A8
:1000A0000E15040400000000000A04042530326923
:1000B0003A253032692E256900202020202020009A
:1000C000060003007A00080011038C0008001903E1
:1000D0009400080021039C0008002903A4000000EC
:1000E000F894EE27EFBBF1E0F5BFE5BF8DE0A2E0AD
:1000F000BB27ED938A95E9F780E098E0A0E0B1E0B6
:10010000ED930197E9F7E0ECF0E085919591009788
:1001100061F0A591B59105901590BF01F001059092
:100120000D920197E1F7FB01F0CFE0E0EEBBEFEFBE
:10013000EDBFE8E0EEBFC0E0D3E00C9459012C978E
:100140008CE060E070E0E0E8F0E0EFD21A93219AF2
:10015000209A229A239A249A259AA2E3B0E0FED20A
:1001600010E01C3070F4A2E0B0E0F8D2E12FF0E033
:10017000DE011196AE0FBF1FAC910DD009D01F5FED
:10018000F0CFECE04E2EA42D1ED018812D960895B0
:10019000299A299808951A931A2F13FF02C02D9AAD
:1001A00001C02D9812FF02C02C9A01C02C9811FF9B
:1001B00002C02B9A01C02B9810FF02C02A9A01C0DE
:1001C0002A98199108951A930A930A2F289804C01F
:1001D0001A930A930A2F289AA2E0B0E0BFD2E02F28
:1001E000E07F1E2F12951F70A12FD5DFD1DFE02FEA
:1001F000EF701E2FA12FCFDFA2E0B0E0AFD2C8DF9B
:1002000009911991089585D29D0110E044D2A491DD
:10021000DFDFE12FF0E0E20FF31FE491E030B1F710
:100220000AC077D29D0110E036D2A081D1DF39D249
:10023000EC91E030C9F774D2249608951A930A938A
:100240001A2F0A81E12FF0E0309719F4A02FA0585F
:1002500014C0E130A0E0FA0719F4A02FA0540DC09B
:10026000E230A0E0FA0719F4A02FAC5606C0E33044
:10027000A0E0FA0719F4A02FAC52A5DF198108817C
:100280002396089546D29D010C81E02FEE0FEE0FCC
:10029000EE0FE05CAE2F97DF10E0183028F401D2AB
:1002A000AC9196DF1F5FF9CFA0E88DDF39D225969C
:1002B000089545DF589A599AE0E0EA93A1E1B3E046
:1002C000E1DFE1E0EA93A9E1B3E0DCDFE2E0EA9319
:1002D000A1E2B3E0D7DFE3E0EA93A9E2B3E0D2DF43
:1002E000E0E0F3E0FA93EA93ECEAF0E0FA93EA93C1
:1002F000E32DDCD1E62DDAD1E52DD8D18CE07BD110
:100300006096E4E0EA93A0E099DFA0E0B3E089DF43
:10031000AEE3B0E023D280E298E00197F1F7489B8A
:100320005394499903C0552433246624EAE0E51523
:1003300011F455246394662011F466243394ECE39D
:100340003E2EE03009F03324CBCFA1E041DFFFCFD8
:10035000DED19D015E811296ED91FC91119730974F
:10036000E9F0D901ACD18F01309759F00230E0E0CB
:100370001E0760F0F80131978F01D9011496ED93B3
:10038000FC93D9011296A0D131975083D901ED91F8
:10039000FC911197FF230AF097D105C0D901EFEF27
:1003A000FFEFED93FC93BAD127960895BA93AA93E1
:1003B0002697ADD110E0AC85BD85E0E0F0E0ED938F
:1003C000FC93EA89FB893196EA8BFB8B3197E491A8
:1003D0002E2FE03009F408C1E12FE03031F425324E
:1003E00011F411E001C076D1FEC0E130A1F4253254
:1003F00011F470D1F7C012E040E000E02D3211F4AA
:1004000001E0F1C02B3211F44BE2EDC0203211F4C7
:1004100040E2E9C002C0E23039F450E013E020339A
:1004200011F40068E0C003C0E33009F0DCC0203301
:1004300010F02A3308F007C0AAE05A9F502DE22F8F
:10044000E0535E0FD0C0E22FE33639F44AD1E88999
:10045000F989A481AA934BD1C5C0E33729F441D1CE
:100460004CD100D11E2F07C0E03749F43AD145D115
:1004700005D11E2F086002600F7730E037C0E436E8
:1004800011F0E93611F4046002C0E53731F4E8E612
:10049000F0E0EE83FF8315E00CC0E83511F408604E
:1004A00003C0E83709F09EC0E2E7F0E0EE83FF8387
:1004B00014E002FF15C015D1A889B9891496ED91F1
:1004C000FD91EA87FB87AB85AA2322F43AD1EA871C
:1004D000FB874DE2403011F01F5F01C00B7F06C06B
:1004E00000D1A889B989EBD0EA87FB8700FD10C04D
:1004F000151770F407FF08C002FF04C00B7F242FFC
:10050000115001C020E301C020E2E4D05150F0CFEF
:10051000312F01FF16C0303099F003FF06C0EE8185
:10052000FF812591EE83FF8305C0AE81BF812D91B0
:10053000AE83BF83CFD0503009F051503150EBCF54
:1005400048C020E3EE81FF8100D1E887F987EE8182
:10055000FF813296EE83FF83E885F985AA85BB8506
:10056000AE17BF0750F02F5FA885B985EA85FB85D8
:10057000EA1BFB0BEA87FB87EFCF2A3328F003FF48
:1005800002C0295F01C0295D04FD19C0213320F498
:10059000A885B985119709F409C0531710F000FF19
:1005A00001C011C020E207FF0AC020E3006102FF82
:1005B00006C00B7F4A939BD0503009F051508AD02F
:1005C000503009F051503150A885B985129708F084
:1005D000B8CF00FF07C0503029F05150E0E2EA9355
:1005E00086D0F9CF10E0EDCEAC85BD85ED91FD91C3
:1005F00095D064960895FF92F82E269788D0FE0134
:100600000024EF0DF01D46855785042E052A19F4A8
:10061000EFEFFFEF23C0DE0118960024AF0DB01DF1
:100620008D0148875987E0E0EA87EB87DE011C9659
:100630000024AF0DB01DED91FD91FA93EA931A934A
:100640000A93E8EAF1E0FA93EA93DE011C96AEDE43
:100650009F01A885B985E0E0EC93F9015FD02C9665
:10066000FF900895BA93AA93A991B991EE27FF2715
:100670006D91662311F03196FBCF0895BA93AA933A
:10068000AA27BB27E991F9910590002011F0119656
:10069000FBCFFD010895E12F1F5FF0E0E20FF31F94
:1006A0000895D901EE27A10FBE1F0895FF276627E1
:1006B00077274FD00895A1E0C1DDA2E089CD14963F
:1006C000ED91FC9111970895ED91FD913196FE9376
:1006D000EE9308952A93AD85BE85EF85F889099537
:1006E0000895E889F9893497E88BF98B0895AD85E9
:1006F000BE85EF85F88909950895A889B98914966A
:10070000ED91FD91EE83FF83AE81BF8108955A93F1
:100710004A933A932A931A930A9308955D814C81E0
:100720003B812A81198108810895AF93BF93DB0132
:10073000AC0FBD1F05900D928A95E1F7BF91AF9167
:100740000895F195E195F04008950590F491E02D1C
:1007500008957A936A93FA93EA930895109639F07C
:10076000A89580EA9FE00197F1F71197C9F70895DE
:00000001FF
