:060000000C9434000C9486
:1000060000000C9400000C9400000C9400000C946A
:1000160000000C9400000C9400000C9400000C945A
:1000260000000C9400000C9400000C9400000C944A
:1000360000000C9400000C9400000C9400000C943A
:1000460000000C9400000C9400000C9400000C942A
:1000560000000C9400000C9400000C9400000C941A
:100066000000F894EE27EFBBF1E0F5BFE5BF8DE0A9
:10007600A2E0BB27ED938A95E9F780E098E0A0E03F
:10008600B1E0ED930197E9F7E0E0EEBBEFEFEDBFEE
:10009600E8E0EEBFC0E0D3E00C945100389A399AFC
:1000A600E3B1E0930003E9B1E09301030BD011F44F
:1000B600409A05C0409806D010F4419A01C0419874
:1000C600EFCFFFCFE0910103A0910003EA17089557
:00000001FF
