:0A0000000C9440000C9400000C94D6
:10000A0000000C9400000C9400000C9400000C9466
:10001A0000000C9400000C9400000C9400000C9456
:10002A0000000C9400000C9400000C9400000C9446
:10003A0000000C9400000C9400000C9400000C9436
:10004A0000000C9400000C9400000C9400000C9426
:10005A0000000C9400000C9400000C940000FC605A
:10006A00DBF366B7BEE1FEF6EE3F9C7B9E8E100088
:10007A00000368000000F894EE27EFBBF1E0F5BF3B
:10008A00E5BF8DE0A2E0BB27ED938A95E9F780E012
:10009A0098E0A0E0B1E0ED930197E9F7E8E7F0E036
:1000AA0085919591009761F0A591B591059015906C
:1000BA00BF01F00105900D920197E1F7FB01F0CF26
:1000CA00E0E0EEBBEFEFEDBFE8E0EEBFC0E0D3E06B
:1000DA000C946F00EFE0E8B9EFEFEAB9E6B1EF7020
:1000EA004E2EF0E0E050FD4FE081EBB9F7CFFFCFA5
:00000001FF
