:080000000C943D000C9400007B
:100008000C9400000C9400000C9400000C94000068
:100018000C9400000C9400000C9400000C94000058
:100028000C9400000C9400000C9400000C94000048
:100038000C9400000C9400000C9400000C94000038
:100048000C9400000C9400000C9400000C94000028
:100058000C9400000C9400000C9400000C94000018
:10006800FC60DBF366B7BEE1FEF60A000003680039
:100078000000F894EE27EFBBF1E0F5BFE5BF8DE097
:10008800A2E0BB27ED938A95E9F780E098E0A0E02D
:10009800B1E0ED930197E9F7E2E7F0E085919591FA
:1000A800009761F0A591B59105901590BF01F001F9
:1000B80005900D920197E1F7FB01F0CFE0E0EEBB70
:1000C800EFEFEDBFE8E0EEBFC0E0D3E00C946C00CA
:1000D800EFE0E8B9EFEFEAB9E0910A03F0E0E050A9
:1000E800FD4FE081EBB9309905C0E0910A03EF5F5D
:1000F800E0930A03A0910A03AA3019F4E0E0E09320
:100108000A03A8EEB3E002D0E7CFFFCF109639F08C
:10011800A8958AEF90E00197F1F71197C9F708952C
:00000001FF
